S0160000455345353136204D41494E2046572E7372656393
S214012000987A0020C9A70200C1A80200C1A8020050
S21401201000000000000000000000000000000000BA
S21401202000000000000000000000000061990100AF
S2140120300000000000000000819A0100C99A01001A
S214012040C1A80200C1A80200C1A8020019690200C5
S214012050455E0200C1A80200A92C0100C1A8020029
S214012060ED2D0100BD6F0200D56F0200ED6F02007D
S214012070057002001D7002003570020011A70200F3
S21401208025A7020039A702004D76010061760100FE
S214012090757601000000000000000000312B0100F1
S2140120A0C1A802006D2C0100C1A80200C1A802004F
S2140120B00000000010B5064C2378002B07D1054B15
S2140120C0002B02D0044800E000BF0123237010BD9E
S2140120D00003002000000000AC9B0300084B10B575
S2140120E0002B03D00749084800E000BF07480368F3
S2140120F0002B00D110BD064B002BFBD09847F9E70B
S2140121000000000004030020AC9B0300AC9B03000E
S2140121100000000080B582B000AF78607B680022C6
S2140121201A70C046BD4602B080BD000080B582B0C0
S21401213000AF02003960FB1D1A70FB1D1B78012BD6
S2140121400AD0022B0FD0002B14D10E4B0D4A9169E9
S2140121503A680A439A610FE00A4B0A4AD1693A681B
S2140121600A43DA6108E0074B064A116A3A680A43ED
S2140121701A6201E0172300E000231800BD4602B0F2
S21401218080BDC0460004004080B582B000AF7860D4
S2140121907B6880221A707B6800225A707B68012255
S2140121A09A707B680022DA70C046BD4602B080BDD8
S2140121B080B582B000AF0200FB1D1A70FB1D1B78B4
S2140121C0002B02D0012B07D00DE0084B074A126CFA
S2140121D002210A431A6406E0044B044A126C0421E5
S2140121E00A431A64C046BD4602B080BD00080040DE
S2140121F080B584B000AF78607B681B68FB60FB68C5
S2140122005B7EDBB25BB2002B01DA012300E0002328
S2140122101800BD4604B080BD80B582B000AF7860BE
S2140122207B6800221A707B6800225A707B68002245
S2140122305A807B6800221A717B6800221A767B68B6
S21401224000221A627B680022DA617B6800229A60AB
S2140122507B6800221A737B68C0225201DA817B6890
S21401226000221A747B6800225A747B6800229A74D2
S2140122707B680022DA747B6800221A757B682A2242
S214012280002199547B6800225A757B6800229A7552
S2140122907B682422002199547B680022DA847B68BB
S2140122A000221A857B680022DA757B682B220021C2
S2140122B099547B682C2200219954C046BD4602B031
S2140122C080BD000080B598B000AF78600C23FA1886
S2140122D0154B1000190050231A00144B9847144B45
S2140122E0FB657B68132B1AD80C23FB187A689200BF
S2140122F0D358FB650823FB1818000E4B9847082394
S214012300FB1800229A700823FB1801221A70FB6D35
S214012310DBB20822BA1811001800074B9847C046CE
S214012320BD4618B080BDC046F4560300E142030026
S214012330FFFF000089210100999A0200F0B589B0DB
S21401234000AF786039601F23FB1800221A70102333
S214012350BB611723FB1800221A707B681B683B6160
S2140123600C23FB181800CE4B98473B681A780C23B1
S214012370FB181A700C23FB1819001E20C94B98472E
S2140123801E20C94B98473B682C229B5C002B40D0F3
S2140123901623FB183A682B21525C1A703B68197B8E
S2140123A01523FB181622BA1812788A181A703B6879
S2140123B02C22995C0F23FB181522BA1812788A185A
S2140123C01A7018E01623FB181B780F2213403A6880
S2140123D0127B9B181800B54B98471523FB181A78E3
S2140123E01523FB1801321A701623FB181A781623C8
S2140123F0FB1801321A701523FA180F23FB181278EE
S2140124001B789A42DED33B68DB891800A74B9847B6
S21401241009E03B681B7B1800A44B98473B68DB89A7
S2140124201800A24B98473B685B7D9B00DAB23B697C
S2140124301A703B689B7DDB015AB23B685B785BB2E6
S21401244013435BB2DAB23B695A703B681B79342B93
S21401245046D89A00964BD3181B689F461F23FB1835
S2140124603A68527C1A701723FB183A68127C1A7065
S2140124701023BB6136E01F23FB1801221A701723B5
S214012480FB1802221A701023BB612BE01F23FB18D6
S21401249002221A701723FB1804221A701023BB613C
S2140124A020E01F23FB1801221A701723FB180622AF
S2140124B01A701023BB6115E01F23FB1800221A7047
S2140124C01723FB1808221A701023BB610AE0302379
S2140124D0BB6107E02023BB6104E00023BB6101E090
S2140124E01723AEE11F23FB181B781B01DBB27022FA
S2140124F01340DAB21723FB181B781343DAB23B6991
S2140125009A703B68DB7D3F2B01D9172399E13B6825
S214012510DA7D3B69DA70C0467B681800654B9847E0
S214012520031EF9D13B685A88BB699BB213439AB222
S2140125303B6824215B5C9BB2DB009BB213439AB2DF
S2140125403B681B7D9BB29B009BB213439AB23B68D0
S2140125509B7C9BB2DB189BB213439AB23B68DB7C35
S2140125609BB213439AB23B699A803B681B7E002B51
S21401257000D1C4E0BB69102B00D176E002D8002B55
S2140125804DD0BCE0202B23D0302B00D0B7E03B68E9
S214012590DB7C002B11D03B68DB697F2B0BDC3B68B7
S2140125A0DB69803307DB3B681B6A7F2B03DC3B68F8
S2140125B01B6A803301DA172343E13B68DB69FF2B93
S2140125C004DC3B681B6AFF2B00DC91E0172338E133
S2140125D03B68DB7C002B15D03B68DB69364A9342AF
S2140125E00EDC3B68DB69354A934209DB3B681B6AB4
S2140125F0314A934204DC3B681B6A304A934201DA53
S21401260017231EE13B68DB692D4A934205DC3B68D4
S2140126101B6A2B4A934200DC6CE0172311E13B68EE
S214012620DB7C002B15D03B68DB69264A93420EDC27
S2140126303B68DB69244A934209DB3B681B6A214AF3
S214012640934204DC3B681B6A1F4A934201DA172354
S214012650F7E03B68DB691D4A934204DC3B681B6A72
S2140126601A4A934248DD1723EBE03B68DB7C002BDC
S21401267032D03B68DB69164A93420EDC3B68DB6965
S214012680144A934209DB3B681B6A114A934204DCF5
S2140126903B681B6A0F4A93421EDA1723D1E0C046F5
S2140126A015210100399702007D970200C52201001D
S2140126B044570300F1210100FF01000000FEFFFF67
S2140126C0FF030000FF07000000F8FFFFFF0F0000F8
S2140126D0FF7F00000080FFFF3B68DB695B4A934297
S2140126E004DC3B681B6A594A934207DD1723A8E0BE
S2140126F0C04604E0C04602E0C04600E0C046C04610
S2140127007B681800524B9847031EF9D13B681A7E26
S2140127103B691A72C0467B6818004D4B9847031EEA
S214012720F9D13B68DB699AB23B699A83C0467B68FC
S2140127301800474B9847031EF9D13B681B6A9AB2AB
S2140127403B691A841423FB183A682C21525C1A70D0
S2140127501423FB181B78002B06D01423FB181A78B9
S2140127601423FB18013A1A701423FB181B780F2B3D
S21401277004D83B682B229B5C0F2B01D9172360E002
S214012780C0467B681800324B9847031EF9D13B6858
S2140127909B683A682B21525C120513431422BA181F
S2140127A01278120413433A68D28913433A68127BAB
S2140127B01A433B691A613B682A229A5C3B691A757F
S2140127C03B690F229A753B6824229B5C002B1ED026
S2140127D03B68DB8C1F4A934201D9172331E03B68E3
S2140127E0DA8C3B699A843B6828229B5E1A4A93429C
S2140127F005DC3B6828229B5E184A934201DA1723C0
S2140128001FE03B6828229B5E9AB23B69DA84144B30
S2140128101B68DB089BB21B029AB2E023DB00134065
S2140128209AB2104B5C681B686101DD0E0D43E60E23
S214012830ABB2FF210B409BB213439AB23B691A8598
S21401284000231800BD4609B0F0BDC046FFFF0000DA
S214012850F1210100FF0F0000FF07000000F8FFFF55
S214012860246080002060800080B586B000AFF860EC
S214012870B9607A60FB68BA681A6080235B02190047
S2140128800220324B9847BB681B78DBB21A00012343
S214012890134001D0052355E0BB681B78DBB21A0054
S2140128A00223134001D01C234CE07B685A78FB6856
S2140128B01A71FB681B79002B02D10120244B984723
S2140128C01723FB1800221A700EE01723FB181A783C
S2140128D0FB68023292000021D1501723FB181A78A8
S2140128E01723FB1801321A701723FB181B78022BCB
S2140128F0EBD9FB6800229A76FB680022DA76FB6841
S21401290000221A83FB6800221A77124BFA681A60B3
S2140129107B682A229B5C002B0AD17B681B7D0122E7
S2140129205340DBB2002B03D0FB6801225A7702E04A
S214012930FB6800225A777A68FB6811001800064B7C
S214012940984703001800BD4606B080BD2D21010042
S214012950B1210100A84500203D23010080B584B0C7
S21401296000AF78607B681B68FB60FB685B7EDBB250
S2140129705BB2002B01DA012300E000231800BD46FC
S21401298004B080BD80B584B000AF78607B681B68FA
S214012990FB60C0467B6818000B4B9847031EF9D1B5
S2140129A0FB681B7BDBB202221343DAB2FB681A73A5
S2140129B0C0467B681800044B9847031EF9D1C046F1
S2140129C0BD4604B080BDC0465D29010080B584B017
S2140129D000AF78600A00FB1C1A707B681B68FB60FE
S2140129E0FB68FA1C12789A75C046BD4604B080BDD5
S2140129F080B584B000AF0200FB1D1A70FB1D1A786B
S214012A00474B9200D358FB60FB681B681B7EDAB20B
S214012A10FB681B68DB7DDBB21340DBB2BB60BB68C7
S214012A200122134045D0FB681B6801221A76C04676
S214012A30FB6818003B4B9847031EF9D1FB685B699E
S214012A40991CFA685161FA681268528B92B21A8020
S214012A50FB681B8B9BB2013B9BB2FA68191C118366
S214012A60002B08D0FB685B7F002B22D0FB68180088
S214012A702D4B98471DE0FB68012118002B4B98470A
S214012A80FB681B7FDBB2052B13D1FB6800221A778C
S214012A90FB68DB7E1A00012313400AD0FB689B7E8D
S214012AA01A000123134004D0FB689B68FA681000E3
S214012AB09847BB680422134014D0FB681B680422A5
S214012AC01A76FB68DB7E1A00022313400AD0FB68E5
S214012AD09B7E1A000223134004D0FB68DB68FA6869
S214012AE010009847BB680222134014D0FB681B688D
S214012AF002221A76FB68DB7E1A00042313400AD0F2
S214012B00FB689B7E1A000423134004D0FB681B69F4
S214012B10FA6810009847C046BD4604B080BDC0465E
S214012B20A84500205D29010085290100CD29010065
S214012B3080B500AF0020024B9847C046BD4680BD19
S214012B40F129010080B582B000AF0200FB1D1A70AA
S214012B50074AFB1D1B7819001F230B4001219940D2
S214012B600B0019008023D150C046BD4602B080BD7F
S214012B7000E100E080B584B000AF0200FB1D1A70D2
S214012B80FB1D1A78374B9200D358FB60FB681B6815
S214012B90BB60BB689B79DBB21A00012313400ED0E1
S214012BA0BB6801229A71FB681433002B07D0FB68BF
S214012BB05B7C002B03D0FB689B6900209847BB68B1
S214012BC09B79DBB21A000223134047D0BB6802226E
S214012BD09A71FB689B899BB2002B33D0FB689A687D
S214012BE0FB68DB899BB2591C88B2F968C8815B0017
S214012BF0D3181B889AB2BB689A81FB689B899BB2E3
S214012C00013B9AB2FB689A81FB689B899BB2002BB9
S214012C1018D1FB68202200219954BB6802221A7140
S214012C20BB6802229A7119200F4B9847FB68143330
S214012C30002B07D0FB689B7C002B03D0FB68DB696D
S214012C4000209847FB681433002B07D0FB681B7CD9
S214012C50002B03D0FB685B6900209847C046BD4641
S214012C6004B080BDAC450020452B010080B500AF07
S214012C700020024B9847C046BD4680BD752B01001B
S214012C8080B500AF024B9847C046BD4680BDC046E2
S214012C90A55A020080B500AF024B9847C046BD4614
S214012CA080BDC046F95A020080B586B000AF494BD8
S214012CB09847494B1B8C9BB2DAB21723FB180F219E
S214012CC00A401A701723FB181A78444B9200D358FF
S214012CD03B61414A3B691B780F210B40D9B23F2328
S214012CE0D1543D490F23FB184E228A5C1A703B696A
S214012CF01B783B4A1B01D31802331B889BB2BB606F
S214012D003B691B78374A1B01D31802331B889BB2D9
S214012D107B60BA687B68D21A3B695A610F23FB183D
S214012D201B780122134016D02B4A4E230121D15481
S214012D303B6910225A743B691B7C1A00012313401D
S214012D4042D03B695B68002B3ED03B695B683A69C1
S214012D501000984738E00F23FB181B780222134017
S214012D6016D01D4A4E230221D1543B6900225A74C3
S214012D703B691B7C1A000223134025D03B699B68E4
S214012D80002B21D03B699B683A69100098471BE0ED
S214012D900F23FB181B780422134015D00E4A4E232E
S214012DA00421D1543B6906225A743B691B7C1A00E4
S214012DB00423134008D03B69DB68002B04D03B6931
S214012DC0DB683A6910009847074B9847C046BD46EE
S214012DD006B080BD812C0100004800417003002030
S214012DE0B045002020030020952C010080B582B05C
S214012DF000AF154B1B697B60144B9B693B60124B04
S214012E009A683B681A43104B9A60104B104A9A61B5
S214012E1008E07B685A687B681B68180090477B68E7
S214012E209B687B607B68002BF3D1074BDB683B60BC
S214012E30054B9B683A68D2431A40034B9A60C046DA
S214012E40BD4602B080BDC04600000020000400421E
S214012E50FFFF0F0F80B582B000AF02003960FB1D87
S214012E601A70FB1D1B78012B0AD0022B0FD0002BEA
S214012E7014D10E4B0D4A91693A680A439A610FE0E4
S214012E800A4B0A4AD1693A680A43DA6108E0074BF5
S214012E90064A116A3A680A431A6201E0172300E0FB
S214012EA000231800BD4602B080BDC04600040040A5
S214012EB080B500AF02210220074B9847074B01223D
S214012EC01A70C046054B1B78DBB21A00012313406B
S214012ED0F8D1C046BD4680BD552E01000004004213
S214012EE080B584B000AF78607B681B68FB60FB68C8
S214012EF0DB69072213405A1E9341DBB21800BD4618
S214012F0004B080BD80B582B000AF7860C0467B68F3
S214012F101800044B9847031EF9D1C046BD4602B0BF
S214012F2080BDC046E12E010080B584B000AF786058
S214012F307B681B68FB60FB681B681B01DB0FDBB251
S214012F401A000B23FB18511E8A411A700823FB181E
S214012F507A68528B1A807B689B8B9AB20823FB187F
S214012F600821791809888A1A1A807B689B8B9BB27C
S214012F70013B9AB27B689A830B23FB181B78002BC4
S214012F8010D07B68DB7A002B1CD07B689B8B9BB2B6
S214012F90012B17D1FB685B688022D2021A43FB68BB
S214012FA05A600FE07B68DB7A002B0BD07B689B8B2B
S214012FB09BB2002B06D1FB685B688022D2021A43C3
S214012FC0FB685A607B689B8B9BB2002B0ED17B689B
S214012FD09B7A002B0AD07B6818000E4B9847FB683B
S214012FE05B68C02292021A43FB685A607B6818002D
S214012FF0084B98477B681A6A0823FB181B88D31866
S214013000FA682821525CD2B21A70C046BD4604B096
S21401301080BDC046052F010080B584B000AF786042
S2140130207B681B68FB60FB685B8B9BB21A00042302
S214013030134004D07B6825221E21995424E00A23DC
S214013040FB187A68528B1A807B689B8B9AB20A238C
S214013050FB180A21791809888A1A1A807B689B8BC3
S2140130609BB2013B9AB27B689A837B681800084B37
S21401307098477B681A6A0A23FB181B88D3181B78A3
S214013080D9B2FB6828229954BD4604B080BDC0461B
S214013090052F010080B584B000AF78607B681B689F
S2140130A0FB60FB681B7EDBB21A00012313402BD0AA
S2140130B0FB6801221A76FB685B8B9BB21A0002231F
S2140130C0134004D07B682522412199541CE0FB68FB
S2140130D05B8B9BB21A000423134015D07B68252214
S2140130E0182199547B6800229A837B689B7A002B6F
S2140130F00AD07B681800134B9847FB685B68C022B0
S21401310092021A43FB685A607B689B8B9AB27B6873
S2140131105A837B6825229B5CDBB2052B0ED17B682C
S21401312024229B5CDBB2002B04D17B681800064B83
S214013130984703E07B681800044B9847C046BD4695
S21401314004B080BD052F010019300100292F0100B0
S21401315080B584B000AFF860B960FB1D1A70FB1D26
S2140131601B78FA6802339B00D3180433BA681A60D6
S214013170FB681B7EDBB25AB2FB1D1B78012199400E
S2140131800B005BB213435BB2DAB2FB681A76C04639
S214013190BD4604B080BD000090B587B000AF786032
S2140131A039607B681B683B613B685A687B681A62BA
S2140131B03B685A887B689A837B682422012199544C
S2140131C07B682522052199543B691B681B01DB0F8F
S2140131D0DBB21A000F23FB18511E8A411A703B6896
S2140131E05B7A002B06D03B689A7A7B681100180040
S2140131F03B4B98470F23FB181B78002B0BD03B68E3
S2140132005B88012B07D13B695B688022D2021A4397
S2140132103B695A6005E03B695B68324A1A403B6984
S2140132205A603B681B7A002B45D03B681B885A00C6
S2140132303B685B7A9B0313431A0080231B021A43E5
S2140132403B695A621723FC187B681800264B98477F
S214013250030023703B695B68224A1A403B695A6047
S2140132601723FB181B78002B07D11723FC187B6844
S21401327018001E4B9847030023701723FB181B7872
S214013280002B14D13B6903229A753B681B881B0AE5
S2140132909BB2782213439BB25A003B685B7A9B032E
S2140132A01343012213431A003B695A6212E01723A3
S2140132B0FB181B780FE03B6903229A753B681B8855
S2140132C05B0001221A433B685B7A9B0313431A0097
S2140132D03B695A6200231800BD4607B090BDC04640
S2140132E0F9750100FFFFFBFF9B7501003D750100AD
S2140132F080B582B000AF786039607B689B8B9BB2EB
S214013300002B01D005230CE07B6801229A727B68B2
S2140133100122DA723A687B6811001800034B98475D
S21401332003001800BD4602B080BDC04699310100B9
S21401333080B584B000AF786039607B681B68FB603D
S2140133403B685B7A002B06D03B689A7A7B68110053
S21401335018001E4B9847FB685B681D4A1A40FB68BD
S2140133605A603B685A687B681A623B685A887B6871
S2140133709A837B682422002199547B6825220521A3
S2140133809954FB6803229A753B681B7A002B0DD073
S2140133903B681B885A003B685B7A9B0313431A0001
S2140133A080231B021A43FB685A6209E03B681B88AC
S2140133B05A003B685B7A9B0313431A00FB685A6208
S2140133C000231800BD4604B080BDC046F975010053
S2140133D0FFFFFBFF80B582B000AF786039607B6885
S2140133E09B8B9BB2002B01D005230CE07B6801224E
S2140133F09A727B680122DA723A687B6811001800BB
S214013400034B984703001800BD4602B080BDC04676
S2140134103133010080B586B000AF0200FB1D1A7083
S214013420FB1D1A78934B9200D3587B617B691B680E
S2140134303B613B691B681B01DB0FDBB21A000F23E4
S214013440FB18511E8A411A700E23FB187A69527EA8
S2140134501A707B691B7EDAB20E23FB180E217918CF
S21401346009780A401A707B695B8B9BB2002B09D1E5
S2140134707B699B8B9BB2002B04D07B6918007E4B2B
S214013480984770E07B695B8B9BB2002B39D07B69D8
S2140134909B8B9BB2002B34D17B6925229B5CDBB2D4
S2140134A0052B2ED17B6924229B5CDBB2002B28D115
S2140134B03B6903221A757B6900225A837B692522A0
S2140134C0002199547B699B7A002B0BD07B691800ED
S2140134D06A4B98473B695B68C02292021A433B6974
S2140134E05A6002E03B6901221A760E23FB181B780C
S2140134F00122134037D07B69DB687A691000984750
S21401350031E07B695B8B9BB2002B2CD07B699B8B5C
S2140135109BB2002B27D03B695B8B9BB21A00202302
S214013520134011D10F23FB181B7801225340DBB245
S214013530002B04D17B699B8B9BB2012B04D07B694A
S2140135402522412199540EE07B6924229B5CDBB243
S214013550002B04D17B691800494B984703E07B692F
S2140135601800484B98477B695B8B9BB2002B47D072
S2140135707B699B8B9BB2002B42D17B6925229B5C8E
S214013580DBB2052B3CD17B6924229B5CDBB2012B91
S21401359036D13B691B7EDBB21A000223134002D0F0
S2140135A03B6902221A763B6903221A757B6900225F
S2140135B05A837B692522002199540E23FB181B7818
S2140135C0022213400BD07B6924229B5CDBB2012BC9
S2140135D005D17B691B697A691000984710E00E23B4
S2140135E0FB181B78012213400AD07B6924229B5CBE
S2140135F0DBB2002B04D17B69DB687A69100098473F
S2140136007B6925229B5CDBB2052B2ED07B692522AC
S2140136109B5CDBB2002B28D03B6903221A757B69C1
S21401362000225A837B6900229A837B6925229B5C50
S214013630DBB2412B0ED07B699B7A002B0AD07B69CB
S21401364018000E4B98473B695B68E022D2021A438A
S2140136503B695A600E23FB181B780422134004D0E2
S2140136607B695B697A6910009847C046BD4606B01B
S21401367080BDC0460C5A002095300100052F010080
S21401368019300100292F010080B500AFBFF34F8F1D
S214013690024B034ADA60BFF34F8FFEE700ED00E00E
S2140136A00400FA0580B500AF024B9847C046BD46F8
S2140136B080BDC0468936010080B586B000AF78600F
S2140136C09A4B18009A4B98479A4B1800984B984774
S2140136D0994B1800964B9847984B1800944B98476F
S2140136E0974B1800924B9847964B1800904B98476B
S2140136F0954B18008E4B98471723FB1800221A701B
S214013700924B1800924B9847032200210120914BBF
S21401371098470200904B1A608F4B1B68002B07D10D
S2140137208E4B190003208E4B984700208D4B9847EF
S2140137300C23FB1818008C4B98470C23FB181B789E
S2140137400A2B04D00C23FB181B780D2B37D1874B83
S21401375018007F4B9847864B00221A70854B002233
S2140137601A708549854B31221800854B9847834B43
S21401377031220021995483497F4B64221800824BE1
S214013780984703003B617F4B6322002199547D4B90
S21401379018006F4B98473B69002BECD11723FB1899
S2140137A000221A70744B322200211800774B98477A
S2140137B0744B642200211800744B9847B5E06C4B9B
S2140137C01B78002B59D06B4B1B78032B0CD8694BFD
S2140137D01B785A1CD1B2674A11701A000C23FB18C9
S2140137E019786B4B995405E0614B00221A70614BB6
S2140137F000221A705F4B1B78012B99D9654A644BDE
S21401380011001800644B9847031E2FD063495A4B8A
S2140138101B221800624B9847574B18004C4B984791
S2140138201723FB1800221A70534B3222002118006E
S214013830564B98475149504B31221800504B9847E8
S2140138404D4B1800574B98470300302B06D84B4B6F
S2140138501800544B98470300DAB200E031221723D0
S214013860FB181A70444B1800394B9847404B0022FE
S2140138701A70404B00221A705AE70C23FB181B786B
S2140138800D2B00D154E70C23FB181B78082B04D012
S2140138900C23FB181B787F2B1CD10823FB18424AEC
S2140138A012681A600823FB181800294B984717233B
S2140138B0FB181B78002B37D01723FB181A78172311
S2140138C0FB18013A1A701723FB181B782A4A0021A5
S2140138D0D15429E00C23FB181B781B2B06D1244B53
S2140138E001221A70234B00221A7021E71723FB18B6
S2140138F01B78312B0ED81723FB181B780C22BA180D
S21401390011781D4AD1541723FB181A781723FB1870
S21401391001321A700C23FB1800225A700C23FB1874
S21401392018000B4B984703E7C04601E7E45A03002B
S21401393041770100445B0300F45A0300145B030063
S214013940245B0300045B0300345B03001858030088
S21401395065D60100059D010000460020BC59030004
S21401396051D70100F1BA0100AD390100DC5903005D
S2140139709403002095030020CC0300209803002028
S214013980FF46030000040020B1770100174303003F
S21401399064040020E059030019460300E4590300BB
S2140139A0D5450300CF460300EC59030080B584B02B
S2140139B000AF78607B6818000C4B98470300FB60EB
S2140139C00DE00B4B1A6801235B4219001000094BEE
S2140139D098477B681800054B98470300FB60FB6817
S2140139E00133EED0C046BD4604B080BD01D701000C
S2140139F000460020BDAC010080B500AF0A4B002296
S214013A001A600A4B1B68084A11001800084B9847B1
S214013A10054B1B68002B03D0064B802252051A600B
S214013A20C046BD4680BDC046680400200046002052
S214013A3035A6010004ED00E090B587B000AFF86050
S214013A40B9607A601723FB181B221A701723FB181C
S214013A501B78084A08480F21084CA047064AB9684F
S214013A60FB681800054B984700231800BD4607B0B1
S214013A7090BDC046F0590300840300207145030041
S214013A8080B584B000AFF860B9607A600220064B5A
S214013A909847064B1800064B9847064B9847002355
S214013AA01800BD4604B080BDF96C0100204E000030
S214013AB011BA0100A536010080B584B000AFF860E8
S214013AC0B9607A60034B984700231800BD4604B0DE
S214013AD080BDC046A536010090B58FB000AFF86036
S214013AE0B9607A601823FB1800221A701823FB1895
S214013AF000225A701823FB1800221A701823FB188C
S214013B0000225A701C23FB1800221A701C23FB1873
S214013B101422BA189A601C23FB180122DA811C238E
S214013B20FB181822BA185A601C23FB1801229A8126
S214013B302A4B18002A4B984700237B6342E07B6B95
S214013B40284A29480F21294CA047274B1800244B07
S214013B50984700233B632BE07B6BDAB23B6BDBB20F
S214013B60D318DAB21C23FB181A701C23FB18642224
S214013B70642118001E4B98470300FB62FB6A002B6A
S214013B800CD11C23FB181B781A4A17480F21174C17
S214013B90A047154B1800124B984706E0124B164AE1
S214013BA01A60114B18000E4B98473B6B01333B6371
S214013BB03B6B0F2BD0DD114B1800094B98477B6BE5
S214013BC010337B637B6B7F2BB9DD0C4B1800044BEA
S214013BD0984700231800BD460FB090BDF859030062
S214013BE065D601002C5A03008403002071450300AA
S214013BF0E5440100345A030058202000DC59030034
S214013C0080B586B000AFF860B9607A6000237B614A
S214013C100B4B984703007B617B69012BF8D1FB684E
S214013C201800084B984703001A00FB689A18064BC1
S214013C301000190015231A00044B9847E8E7C04600
S214013C4025480100CF4603003C5A0300E142030029
S214013C5090B597B000AFF860B9607A605623FC184B
S214013C601E4B9847030023805623FC181C4B98478D
S214013C70030023805623FB181B88012B0ED1FB68FB
S214013C801800184B984703001A00FB689A18164B41
S214013C901000190022231A00144B98475623FC18CB
S214013CA0134B9847030023805623FB181B88012BD0
S214013CB00ED1FB6818000B4B984703001A00FB68EF
S214013CC09A180C4B100019002D231A00074B984721
S214013CD0FA239B001800084B9847C5E7194F0100C7
S214013CE0754F0100CF460300545A0300E14203001A
S214013CF095500100785A030011BA010090B589B0B9
S214013D0000AFF860B9607A601623FB1800221A80AB
S214013D101E23FB1800221A801C23FB1800221A807F
S214013D201623FB1864211800194B98470300BB6142
S214013D30BB69002B06D0BB69164AB968F868164CF1
S214013D40A04707E01623FB181B88144AB968F868D1
S214013D50114CA0471623FB181800114B9847030077
S214013D60BB61BB69012B0ED1FB6818000D4B984750
S214013D7003001A00FB689A180B4B10001900152354
S214013D801A000A4B984700231800BD4609B090BD9B
S214013D90114B0100A85A030071450300BC5A0300E9
S214013DA02D6D0100CF460300CC5A0300E14203000B
S214013DB090B585B000AF7860064B18687968002327
S214013DC00A22054CA0470300FB60FB681800BD46AD
S214013DD005B090BD6C040020AD9F010080B582B097
S214013DE000AF0200FB1D1A70064BFA1D1278110077
S214013DF01F220A40012191400A001A60C046BD46B2
S214013E0002B080BD00E100E080B584B000AF78600C
S214013E107B681B68FB60FB68DB69072213405A1E40
S214013E209341DBB21800BD4604B080BD80B582B0B8
S214013E3000AF7860C0467B681800044B9847031EA5
S214013E40F9D1C046BD4602B080BDC046093E01005C
S214013E5080B582B000AF78607B6864221A607B68A8
S214013E601B4A5A607B6800229A607B6800221A739C
S214013E707B6800221A767B68802292031A617B682F
S214013E8001225242DA827B68012252429A827B6880
S214013E900022DA617B6800221A627B6824220021F4
S214013EA099547B6800229A627B682C2200219954DF
S214013EB07B682D22002199547B682E22002199547B
S214013EC07B68D7221A86C046BD4602B080BDC04672
S214013ED0480D000080B584B000AF78607B681B6831
S214013EE0BB600023FB607B681800144B9847BB68D7
S214013EF01B6802221A43BB681A607B681B6818009D
S214013F000F4B9847030018000E4B98470CE0FB68D0
S214013F100133FB607B68DB881A00FB689A4203D892
S214013F20BB6810225A8306E0BB685B8B9BB21A0003
S214013F3010231340EBD0BD4604B080BD2D3E0100DA
S214013F40796F0200DD3D010080B582B000AF786078
S214013F500A00FB1C1A707B685B7EDBB25AB2FB1C44
S214013F601B78012199400B005BB213435BB2DAB2B6
S214013F707B685A76C046BD4602B080BD90B591B00A
S214013F8000AF0023FB633A23FB1800221A703B1D87
S214013F901800214B98473B1D204ADA613B1D204AF9
S214013FA01A623B1DFA229200DA823B23FB18032297
S214013FB01A701EE03A23FC183A1D1A491A4B1800CB
S214013FC01A4B9847030023703A23FB181B78002BE3
S214013FD004D13A23FB181B78FB630FE0124B180041
S214013FE0134B98473B23FB181A783B23FB18013ADF
S214013FF01A703B23FB181B78002BDBD1FB6B002BC5
S21401400004D1094B18000B4B984700E0C046FB6BE8
S2140140101800BD4611B090BD513E010002000800D7
S214014020020009000008004228460020A173010092
S214014030D5740100D53E010080B584B000AF78602C
S2140140400E4B00221A700D4B01229A600023FB6072
S2140140500B4B1B680C22BA1811001800094B984725
S214014060094B00221A70FB68002B03D0074B8022F5
S21401407052051A60C046BD4604B080BD74040020D7
S2140140805046002035A601007004002004ED00E033
S21401409080B584B000AF78600E4B00221A700D4BCD
S2140140A001229A600023FB600B4B1B680C22BA1896
S2140140B011001800094B9847094B00221A70FB683B
S2140140C0002B03D0074B802252051A60C046BD461E
S2140140D004B080BD740400205046002035A60100BF
S2140140E07004002004ED00E080B584B000AF786075
S2140140F00E4B00221A700D4B01225A600023FB6002
S2140141000B4B1B680C22BA1811001800094B984774
S214014110094B01221A70FB68002B03D0074B802243
S21401412052051A60C046BD4604B080BD7404002026
S2140141305046002035A601007004002004ED00E082
S21401414080B500AF1149124B00221800114B984759
S2140141500F4B00211800104B984710490C4B0122B9
S21401416018000C4B98470A4B012118000A4B984738
S2140141700B49074B02221800064B9847044B0221B5
S2140141801800054B9847C046BD4680BD3940010022
S2140141902846002051310100493F010091400100AD
S2140141A0E940010080B582B000AF00237B60144B6C
S2140141B0984703007B607B68002B1AD1114B984708
S2140141C00120114B98470200104B1A600322002170
S2140141D001200F4B984702000E4B1A600B4B1B68D1
S2140141E0002B03D00B4B1B68002B03D106237B60EF
S2140141F000E0C0467B681800BD4602B080BDC046E0
S2140142007D3F0100414101006D9F010024460020D1
S214014210059D01005046002090B585B000AF78603E
S2140142200023FB607B68002B03D07B685B68002B58
S21401423003D108235B42FB601FE07B681B789AB2C0
S214014240104B1A807B685A680E4B5A607B68DA8975
S2140142500C4B5A800B23FC180A4A0B4B1100180012
S2140142600A4B9847030023700B23FB181B78002B7F
S21401427003D006235B42FB60C046FB681800BD46C0
S21401428005B090BD5446002028460020D5330100D5
S21401429090B585B000AF78600023FB607B68002B8B
S2140142A003D07B685B68002B03D108235B42FB606D
S2140142B01FE07B681B789AB2104B1A807B689A685D
S2140142C00E4B5A607B689A890C4B5A800B23FC185C
S2140142D00A4A0B4B110018000A4B9847030023703B
S2140142E00B23FB181B78002B03D006235B42FB60D5
S2140142F0C046FB681800BD4605B090BD5446002078
S21401430028460020F132010090B583B000AF0023AB
S2140143107B60094B1868002300220021074CA04748
S2140143200300012B02D014235B427B607B681800DC
S214014330BD4603B090BDC04624460020AD9F010097
S21401434080B584B000AF78600023FB60084B1B6823
S2140143507A6811001800074B98470300012B02D01A
S2140143601D235B42FB60FB681800BD4604B080BDA0
S21401437024460020BDAC010080B584B000AF786053
S2140143800023FB60044B1A687B681A60FB68180000
S214014390BD4604B080BDC0465046002080B500AF83
S2140143A0024B1B781800BD4680BDC0467004002035
S2140143B080B582B000AF0200FB1D1A70034BFA1DD8
S2140143C012781A70C046BD4602B080BD7004002047
S2140143D080B586B000AFF860B9607A6000237B6173
S2140143E000233B6196235B001800354B984703007A
S2140143F07B617B69002B55D11023FB181800314BCC
S214014400984703007B617B69002B4DD1FB68180040
S2140144102D4B984703007B617B69002B47D13B6995
S2140144207A6811001800294B98470300012B18D110
S214014430274B9847031E06D00020264B9847032398
S2140144405B427B6134E0BB681800234B9847FB68EE
S2140144501800224B984703007B617B69002B04D030
S21401446026E003235B427B6122E03B697A68110008
S2140144701800164B98470300012B0AD1144B984796
S214014480031E0AD00020134B984703235B427B612F
S2140144900EE003235B427B610AE0114B9847030061
S2140144A07B6102E0C04600E0C0467B6903E0C0468F
S2140144B00B4B98477B691800BD4606B080BDC046C9
S2140144C0414301007943010019420100BDAC0100DE
S2140144D09D430100B143010011BA01009142010060
S2140144E00943010080B586B000AFF860B9607A6014
S2140144F000237B6100233B6196235B001800244B5D
S214014500984703007B617B69002B33D11023FB188E
S2140145101800204B984703007B617B69002B2BD149
S214014520FB6818001C4B984703007B617B69002BD6
S21401453025D13B697A6811001800184B984703008B
S214014540012B13D1164B9847031E06D00020154B9E
S214014550984703235B427B6112E0BB681800124B4D
S2140145609847124B984703007B6106E003235B42A2
S2140145707B6105E0C04600E0C0467B6903E0C046BB
S2140145800A4B98477B691800BD4606B080BDC046F9
S214014590414301007943010019420100BDAC01000D
S2140145A09D430100B143010011BA01000943010016
S2140145B080B582B000AF0200FB1D1A70064BFA1DD3
S2140145C0127811001F220A40012191400A001A6048
S2140145D0C046BD4602B080BD00E100E080B584B0B3
S2140145E000AF78607B681B68FB60FB685B7EDBB2B4
S2140145F05BB2002B01DA012300E000231800BD4660
S21401460004B080BD80B586B000AF78607B681B685B
S2140146103B613B691B7EDBB2FB6000237B61FB6871
S2140146200122134003D07B69012213437B61FB689F
S2140146300422134003D07B69022213437B61FB688B
S2140146400222134003D07B69042213437B617B69FA
S2140146501800BD4606B080BD80B584B000AF786056
S21401466039607B681B68BB600023FB603B680122E6
S214014670134003D0FB6801221343FB603B68022210
S214014680134003D0FB6804221343FB603B680422FB
S214014690134003D0FB6802221343FB60FB68DAB2C7
S2140146A0BB681A76C046BD4604B080BD80B584B0EE
S2140146B000AF78607B681B68FB60C0467B681800AB
S2140146C0104B9847031EF9D117200F4B9847FB68EC
S2140146D00F229A75FB680F221A76FB681B78DBB2ED
S2140146E002221343DAB2FB681A70C0467B681800D0
S2140146F0044B9847031EF9D100231800BD4604B0A9
S21401470080BDC046DD450100B145010080B584B0DD
S21401471000AF78607B681B68FB60C0467B6818004A
S2140147200B4B9847031EF9D1FB681B7BDBB20222B9
S2140147301343DAB2FB681A73C0467B681800044B51
S2140147409847031EF9D1C046BD4604B080BDC04699
S214014750DD45010080B584B000AF786039607B68C4
S2140147601800184B984702000123134001D1052376
S21401477023E07B681B68FB60C0467B681800124B11
S2140147809847031EF9D1FB685B8B9AB23B681A8087
S2140147907B68012118000D4B98477B681800094B70
S2140147A0984702000423134006D07B6804211800B2
S2140147B0064B98471E2300E000231800BD4604B0B0
S2140147C080BDC04605460100DD4501005946010091
S2140147D080B500AF024B9847C046BD4680BDC04677
S2140147E0E547010080B58CB000AF3B001800084BD0
S2140147F098473A000749084B1800084B9847064B5C
S2140148001800074B9847C046BD460CB080BDC04651
S21401481019220100004000420446002069280100D8
S214014820AD46010080B586B000AF0E4B18000E4BAA
S21401483098471623FA180B4B110018000B4B984794
S2140148400300052BF5D0FA239B001800084B984768
S2140148501623FB181800074B984703001800BD469F
S21401486006B080BD044600200D47010055470100F3
S21401487011BA0100596D010080B582B000AF020087
S214014880FB1D1A70064BFA1D127811001F220A40F2
S214014890012191400A001A60C046BD4602B080BDA3
S2140148A000E100E080B584B000AF78607B681B68EB
S2140148B0FB60FB68DB695A1E9341DBB21800BD46FC
S2140148C004B080BD80B582B000AF7860C0467B681A
S2140148D01800044B9847031EF9D1C046BD4602B0E6
S2140148E080BDC046A548010080B582B000AF7860A3
S2140148F07B688022D2051A607B6800225A607B683A
S214014900FF221A817B6800229A727B680022DA7283
S2140149107B68962292011A627B68242201219954AF
S2140149207B682522012199547B682622002199540F
S2140149307B682722002199547B6800229A627B6853
S21401494088225203DA607B682C22002199547B6806
S2140149502D22002199547B6800221A637B6800226D
S2140149605A637B6800229A637B680022DA637B685D
S21401497000225A617B6800221A827B680022DA765E
S2140149807B6800221A767B6800221A777B680022F1
S2140149905A767B6813229A767B6800225A77C0463D
S2140149A0BD4602B080BD000080B584B000AF78601F
S2140149B07B681B68FB607B681B681800094B98477F
S2140149C003001800084B98477B681800074B984768
S2140149D0FB681B6802221A43FB681A60C046BD4684
S2140149E004B080BD796F020079480100C548010016
S2140149F080B582B000AF78600A00FB1C1A707B6835
S214014A0031229B5C5AB2FB1C1B78012199400B009A
S214014A105BB213435BB2D9B27B6831229954C0466C
S214014A20BD4602B080BD000080B584B000AF78609E
S214014A300023FB60094B1B680C22BA1811001800F2
S214014A40074B9847FB68002B03D0064B8022520584
S214014A501A60C046BD4604B080BDC04698460020D8
S214014A6035A6010004ED00E080B584B000AF7860A3
S214014A700023FB60094B1B680C22BA1811001800B2
S214014A80074B9847FB68002B03D0064B8022520544
S214014A901A60C046BD4604B080BDC0469846002098
S214014AA035A6010004ED00E080B500AF104B984735
S214014AB0104B98470120104B984702000F4B1A6085
S214014AC00322002101200E4B984702000D4B1A606D
S214014AD00A4B1B68002B03D00A4B1B68002B03D123
S214014AE0094B1800094B9847C046BD4680BDC046D5
S214014AF0614C0100D94C01006D9F01006046002009
S214014B00059D010098460020545B030065D6010010
S214014B1090B595B000AF786039600023FB649623AA
S214014B205B0018003F4B98470300FB64FB6C002BAF
S214014B306ED1FB6C3C4A0821781840213B4CA047BB
S214014B400823FB1818003A4B98474B23FB18002202
S214014B501A7010E04B23FB181B784B22BA181278F8
S214014B603449895C344AD1544B23FB181A784B23B9
S214014B70FB1801321A704B23FB181B78072BE9D957
S214014B802D492E4B082218002D4B9847031E41D164
S214014B902C4B1B683A68110018002B4B98470300F2
S214014BA0012B03D003235B42FB6434E0FB6C274AF2
S214014BB00821781840211D4CA0470823FB1818002F
S214014BC01B4B984722491D4B07221800214B98473B
S214014BD01C4B1B683A68110018001B4B98470300D2
S214014BE0012B05D11A4B1B799AB27B681A8002E019
S214014BF07B6800221A80FB6C174A0821781840212E
S214014C000A4CA0470823FB181800094B984702E0F6
S214014C10C04600E0C046114B9847FB6C1800BD46E5
S214014C2015B090BD5D4D01007C5B0300714503002E
S214014C3065D60100140000201C00002064460020F8
S214014C40D987020098460020BDAC0100905B0300A6
S214014C509C46002021880200A45B0300254D01002C
S214014C6080B590B000AF3B001800144B98473B004E
S214014C70962292011A623B0080225203DA603B00C0
S214014C800F4A1A633B000F4A5A633B000122524205
S214014C909A633B0001225242DA63C0463A000A494F
S214014CA00A4B18000A4B9847031EF7D1074B18000A
S214014CB0084B9847C046BD4610B080BDE948010084
S214014CC00300220003002300001C0042644600206B
S214014CD0DD830200A949010080B500AF0C490D4BE8
S214014CE0002218000C4B98470C490A4B0122180069
S214014CF0094B9847074B00211800094B9847054B6D
S214014D0001211800064B9847C046BD4680BDC046E7
S214014D10294A01006446002091870200694A010081
S214014D20F149010090B583B000AF00237B60094BC9
S214014D301868002300220021074CA0470300012B1E
S214014D4002D014235B427B607B681800BD4603B02B
S214014D5090BDC04660460020AD9F010080B584B07E
S214014D6000AF78600023FB60084B1B687A6811006F
S214014D701800074B98470300012B02D01D235B4206
S214014D80FB60FB681800BD4604B080BD604600208D
S214014D90BDAC010090B595B000AF78604E23FC180D
S214014DA00A4B9847030023804E23FC18084B98476C
S214014DB0030023804E23FC18064B984703002380EC
S214014DC0FA239B001800044B9847EDE7194F0100A2
S214014DD0754F01009550010011BA010080B584B0ED
S214014DE000AF0200FB1D1A700F23FB18FA1D127884
S214014DF0D2091A700E23FB18FA1D127852091A707E
S214014E000D4BBB600F23FB181B78002B0FD10F2314
S214014E10FB181B789B0010229446BC446344083B55
S214014E201A680E23FB181B78DB01D31800E0002359
S214014E301800BD4604B080BD0044004180B582B074
S214014E4000AF0200FB1D1A70FB1D1B781800034BF8
S214014E50984703001800BD4602B080BDDD4D010035
S214014E6080B582B000AF78607B6800221A707B68DC
S214014E7001225A707B6800229A70C046BD4602B075
S214014E8080BD000080B584B000AF0200FB1D1A7023
S214014E90BB1D0A1C1A70FB1D1B7818000D4B98478A
S214014EA00300FB60FB1D1B781F22134001229A4062
S214014EB01300BB60BB1D1B78002B03D0FB68BA68D0
S214014EC09A6102E0FB68BA685A61C046BD4604B002
S214014ED080BDC0463D4E010080B582B000AF3B1D8F
S214014EE018000A4B98473B1D01221A703B1D0222EF
S214014EF05A703B1D19001520054B984700211520B7
S214014F00044B9847C046BD4602B080BD614E0100C5
S214014F10A9620200854E010080B594B000AF44231B
S214014F20FB1800221A704423FB1801225A700F4BFB
S214014F3036221A700D4B4422BA185A600B4B0222C5
S214014F40DA810A4B4822BA189A60084B02229A81E3
S214014F50064BFF22FF211800054B98470300FB6410
S214014F60FB6C9BB21800BD4614B080BDA446002061
S214014F70D143010090B59BB002AF4423FB18002239
S214014F801A704423FB1804225A70354B36221A70C5
S214014F90334B4422BA185A60314B0222DA81304B25
S214014FA04822BA189A602E4B04229A812C4BFF2273
S214014FB0FF2118002B4B98470300FB654823FB187D
S214014FC01B781A064823FB185B781B041A434823F0
S214014FD0FB189B781B0213434822BA18D278134356
S214014FE0BB65214BB86D9847204C0022204BA0474B
S214014FF003000C00190022001E4B08001100984700
S214015000031C3B603A681C4B1C49101C9847031C48
S2140150101A1C1B4B101C984703007B657A6D194BB5
S21401502064211000984703003B653B6D64225242A1
S2140150305A437B6DD318FB64396D134A381DFB6CDC
S21401504000930B004021114CA0473B001800104B69
S2140150509847FB6D9BB21800BD4619B090BDC0467F
S214015060A4460020D1430100214003008D340300F3
S2140150700000F03E15410300852503000000C842EC
S214015080C527030059230300B85B030071450300DD
S214015090856D010090B595B000AF002115202A4B13
S2140150A098474423FB18294A12881A80284B36222F
S2140150B01A70274B4422BA185A60254B0222DA810D
S2140150C0234B4822BA189A60214B02229A81204B20
S2140150D0FF22FF2118001F4B98470300FB6448235B
S2140150E0FB181B781B024822BA18527813433B64FC
S2140150F04023FB181800184B98473B6C174A38009A
S2140151004021174CA0474B23FB1800221A703A6C1B
S2140151109023FF339A4208DC4B23FB1801221A70B6
S21401512001211520084B984707E04B23FB18002266
S2140151301A7000211520044B9847FB6C9BB218008F
S214015140BD4615B090BDC046854E0100E05B03002C
S214015150A4460020D1430100B16D0100D05B0300DD
S2140151607145030090B583B000AF0400080011003C
S214015170FB1D221C1A70BB1D021C1A707B1D0A1C0B
S2140151801A70084BFA1D12781A70074BBA1D12785E
S2140151901A70064B7A1D12781A70C046BD4603B0C7
S2140151A090BDC04688040020240000202500002071
S2140151B080B584B000AF0200FB1D1A700F23FB18E8
S2140151C0FA1D1278D2091A700E23FB18FA1D1278EE
S2140151D052091A700D4BBB600F23FB181B78002B6E
S2140151E00FD10F23FB181B789B0010229446BC445A
S2140151F06344083B1A680E23FB181B78DB01D3189F
S21401520000E000231800BD4604B080BD0044004104
S21401521080B582B000AF0200FB1D1A70FB1D1B7823
S2140152201800034B984703001800BD4602B080BD26
S214015230B151010080B584B000AF0200FB1D1A70A9
S214015240BB1D0A1C1A70FB1D1B7818000D4B9847D6
S2140152500300FB60FB1D1B781F22134001229A40AE
S2140152601300BB60BB1D1B78002B03D0FB68BA681C
S2140152709A6102E0FB68BA685A61C046BD4604B04E
S21401528080BDC0461152010080B500AF024B00221E
S2140152901A70C046BD4680BDB504002080B582B0F8
S2140152A000AF0200FB1D1A70FB1D1B785BB2DB43CF
S2140152B05BB2064A127852B213405BB2DAB2034BC3
S2140152C01A70C046BD4602B080BDC046B504002077
S2140152D080B582B000AF0200FB1D1A70054B1A782C
S2140152E0FB1D1B781343DAB2024B1A70C046BD464B
S2140152F002B080BDB504002080B582B000AF0200C8
S214015300FB1D1A70064B1B78FA1D12781340DBB290
S2140153105A1E9341DBB21800BD4602B080BDC0469E
S214015320B504002090B585B000AF786039607B6821
S214015330002B02D03B68002B01D1002313E00F2382
S214015340FC1839680A4B002218000A4B98470300DC
S2140153502370074B1800084B98470F23FB181B7840
S2140153605A425341DBB21800BD4605B090BDC04657
S214015370E8060020FDD10200FDDB020080B59EB0EC
S21401538000AFF860B960FB1D1A707623FB18012286
S2140153901A807423FB1800221A806E23FB18002241
S2140153A01A807223FB1800221A802423FB18180087
S2140153B041231A000021924B98471823FB18180026
S2140153C009231A0000218E4B98471423FB1800224C
S2140153D01A600023BB667123FB1800221A70BB6893
S2140153E0002B01D1002306E1BA68FB681100180002
S2140153F0844B984703001A0001235340DBB2002B6D
S21401540001D00123F7E0BB6818007F4B98470300E3
S214015410402B01D90023EEE0BB682E2118007B4B00
S21401542098470300BB66BB6E002B52D0BB6E1800BC
S214015430754B984702006E23FB181A806E23FB18E3
S2140154401B88072B37D87123FB1801221A70BA6EF6
S2140154501823FB18110018006D4B9847BB681800FD
S214015460694B984702006E23FB181B88D31A3C2B06
S21401547011D97423FB186E22BA1812883C218A1A95
S2140154801A807423FB181A88B9682423FB1818009D
S214015490604B98472AE0BA6EBB68D21A7423FB1891
S2140154A01A807423FB181A88B9682423FB1818007D
S2140154B0584B98471AE07423FB183C221A80742331
S2140154C0FB181A88B9682423FB181800514B984713
S2140154D00CE07423FB183C221A807423FB181A88EC
S2140154E0B9682423FB1818004A4B98477423FB1805
S2140154F01B887422BA18591C11801A002423FB1821
S2140155002D2199547623FB1800221A807223FB184A
S21401551001221A8010E07223FA187223FB181B88E6
S214015520191C8900CB18DB1813807623FB181A8800
S2140155307623FB1801321A807623FB181B88022B70
S214015540E9D97623FB1801221A804BE07623FB1853
S2140155501A8831491423FB181800304B98477423D6
S214015560FB181B882422BA18D3181422B918032250
S2140155701800284B98477123FB181B78002B0CD07A
S2140155807423FB181B8803332422BA18D318182255
S214015590BA18110018001E4B98472423FA18FB6806
S2140155A011001800174B984703001A0001235340B7
S2140155B0DBB2002B0FD0FB1D1A78BB680021180048
S2140155C00F4B98472423FA18BB6811001800104B9C
S2140155D0984701230FE07623FB181A887623FB18D9
S2140155E001321A807623FA187223FB1812881B8858
S2140155F09A42ABD300231800BD461EB080BDC046FC
S2140156001743030025530100CF4603002947030033
S21401561083460300FF460300F85B0300D5450300FD
S21401562090B583B002AF0120224B984703001A00C1
S21401563001235340DBB2002B05D01F4B190001207C
S2140156401E4B984732E002201A4B984703001A0077
S21401565001235340DBB2002B05D0194B1900012062
S214015660164B984722E00420124B9847031E05D09C
S214015670144B19000120114B984717E008200D4BD9
S2140156809847031E05D0104B190001200B4B984775
S2140156900CE00E4B19000120084B98470C490D48A9
S2140156A000230093002301220B4CA047BD4601B006
S2140156B090BDC046F9520100005C030051D70100BD
S2140156C02C5C0300585C0300845C0300B05C0300A0
S2140156D0DC5C03000C47002051080300B0B586B01F
S2140156E000AF786039607B68002B02D03B68002BE6
S2140156F005D1584B19000120574B9847A6E00820C2
S214015700564B984703001A0001235340DBB2002B87
S21401571055D000237B61524B30221A70504B3A22EF
S2140157205A70504B7B6102E07B69013B7B617B6970
S2140157301B782F2BF8D17B6918004B4B9847030039
S214015740012B24D97B6901337B617A69474B1100B0
S2140157501800474B98474249464B40221800464B93
S21401576098473F4A454B190001203B4B9847132366
S214015770FC183B493F4B0A221800414B984703004F
S21401578023701323FB181B78002B12D008E03D4B27
S21401579019000120304B984720203B4B984755E095
S2140157A01323FB181A78394B190001202A4B984706
S2140157B04CE0374B00221A600820334B98477B6831
S2140157C0002B43D00023FB601323FC180C23FB188B
S2140157D03A68796827482F4DA8470300237013239A
S2140157E0FB181B78002B0CD0224B18002A4B98472D
S2140157F02020254B9847294B19000120164B984726
S21401580024E0234B1A68FB68D218214B1A60204B00
S2140158101A68234B1B68234901200F4CA0471C4BD9
S2140158201A681F4B1B689A4210D3124B18001A4B6A
S21401583098471D4B19000120074B98470021172058
S2140158401A4B98471020104B9847C046BD4606B0E5
S214015850B0BDC046085D030051D70100F9520100F2
S214015860AC000020045D0300CF460300AE0000201C
S21401587083460300E80600207D5301006C5D0300AB
S214015880FDD102002C5D0300D1520100945D03009E
S214015890100700202DD70200FDDB0200C85D0300C3
S2140158A00C070020045E0300385E03003552010039
S2140158B090B585B000AFF860B9607A60BB68042B1C
S2140158C000D977E0BB689A003C4BD3181B689F460B
S2140158D03B4B190001203B4B98476BE03A4B1900B4
S2140158E00120384B98470420384B984762E07B6884
S2140158F01B881A007B685B6835490120314CA0473C
S2140159007B681B88C82B0DD17B685A68314B1A609F
S214015910314B00221A607B685A6880239B009A42AA
S21401592043D803E02020294B984743E07B689A68D8
S2140159307B685B6819001000284B98471020234BA2
S214015940984732E07B685A687B681B68190010002C
S214015950224B98477B681B7A002B28D010201B4BC4
S214015960984724E07B681A681D4B19000120154BE7
S21401597098477B681B680B331BD10820194B984747
S214015980031E06D0184B1800184B98470820184BD2
S21401599098470420134B9847031E02D00420144B4B
S2140159A09847144B9847C04603E0C04602E0C046FD
S2140159B000E0C046BD4605B090BDC0461C6603006B
S2140159C06C5E030051D70100A45E0300D1520100B2
S2140159D0D05E03000C07002010070020DD560100F2
S2140159E00C5F0300F9520100E8060020FDDB02000F
S2140159F09D5201002156010080B582B000AF3A6089
S214015A00FB1D021C1A70BB1D0A1C1A703A68BB1DCE
S214015A101978FB1D1B785BB21800034B9847C046EC
S214015A20BD4602B080BDC04661050300B0B586B074
S214015A3004AF786039603B68FF2213401C003B6866
S214015A401B0A1A00FF2313403A68120C1100FF22AA
S214015A500A403968090E0D007868094902950192D5
S214015A600093230002000120064CA0473A687B6899
S214015A7011001800044B9847C046BD4602B0B0BDA1
S214015A803C5F030051D70100C506030090B587B0FF
S214015A9002AF02003960FB1D1A70FB1D1B782C2B10
S214015AA002D0322B3DD06FE03B68FB60FB681B7871
S214015AB0012B07D1364B19000120364B9847364B40
S214015AC098475EE0FB681B78002B5AD1334B1900D0
S214015AD00120304B98470220314B98470820314B24
S214015AE09847031E06D0304B1800304B98470820C5
S214015AF02B4B984704202B4B9847031E02D00420BB
S214015B00274B98472A4B012118002A4B98472A4AC7
S214015B102A48FF230093130002220B21284CA0479A
S214015B202FE03B68BB60BB681B781800BB6801337D
S214015B301B781C00BB6802331B781A00BB68033352
S214015B401B78204901930092230002000120114C8A
S214015B50A04702201C4B98471C4B1B78012B02D1F7
S214015B601B4B98470FE01B4A114B110018001A4BAC
S214015B709847031E07D0194B19000120054B98477B
S214015B8001E0C04600E0C046C046BD4605B090BD37
S214015B906C5F030051D70100311D02008C5F0300CA
S214015BA09D520100F9520100E8060020FDDB0200CB
S214015BB0140700200DF20200B05F0300BC5F030073
S214015BC05D180200C85F0300D1520100B404002032
S214015BD021560100E45B0300D9F00200F05F0300E8
S214015BE090B583B000AF294B9847294B1900012087
S214015BF0284B9847FC1D0020274B9847030023702D
S214015C00FB1D1B78012B10D1244B19000120214BC1
S214015C109847234B190001201E4B9847C046002089
S214015C20204B98470300022BF9D1FB1D1B78002B54
S214015C30E0D11D4B19000120164B98478C239A0082
S214015C401A4B002118001A4B9847BC1D174B190018
S214015C500020184B984703002370BB1D1B780B2BA5
S214015C6007D1BB1D1A78144B19000120094B984720
S214015C7008E0124B19000120064B98470120104BF3
S214015C809847C046BD4603B090BDC04669E50100D1
S214015C901460030051D7010045EA01004C6003007F
S214015CA074600300B9E50100A8600300B804002091
S214015CB017430300A5D10200CC600300FC6003007B
S214015CC0D152010080B582B000AF3B1D1800084BD1
S214015CD098473A1D074B11001800074B9847054B8C
S214015CE01800064B9847C046BD4602B080BDC04668
S214015CF0F51C0300B4460020191D0300051E030011
S214015D0080B588B000AF3B001800124B98473B00A7
S214015D10802292001A613B000F4A5A603A000F4BEC
S214015D20110018000E4B98470300FB61FB69002B1E
S214015D3006DAFA690B4B190001200B4B9847FEE770
S214015D400A4A064B11001800094B9847C046BD4643
S214015D5008B080BD89030300B44600200C4700202C
S214015D60D50303002061030051D70100B15801009B
S214015D70C104030080B582B000AF3A60FB1D021C6F
S214015D801A70BB1D0A1C1A703A68BB1D1978FB1DD8
S214015D901B785BB21800034B9847C046BD4602B05D
S214015DA080BDC04681F0020080B582B000AF786049
S214015DB039603A687B6811001800034B9847C04663
S214015DC0BD4602B080BDC046B5F0020090B589B0B0
S214015DD002AF78601023FB1800221A701023FB18FC
S214015DE000225A701023FB1800229A707B685B68A9
S214015DF05A687B685B689B682A4901202A4CA04741
S214015E007B681B689B68294904221800284B984721
S214015E10031E43D17B681B689B680433FB60002329
S214015E207B6115E07C69631C7B61FB680C22B918F9
S214015E300A2218001F4B98470300DAB21023FB18FA
S214015E401A55FB681B782C2B0AD1FB680133FB60C3
S214015E507B69022B05DCFB681B78002BE2D100E096
S214015E60C0461023FB181B781A001023FB185B781A
S214015E7018001023FB189B780F490093030001209C
S214015E80094CA0471023FB1818781023FB185978E3
S214015E901023FB189B781A00084B9847C046BD464E
S214015EA007B090BD6861030051D70100706103001F
S214015EB0DD4603008948030078610300655101004F
S214015EC090B58BB000AF78600C23FB181422FF212D
S214015ED01800484B98477B681B689B68464909220F
S214015EE01800464B9847031E66D1454B1900012002
S214015EF0444B98477B685B685A687B685B689B681D
S214015F00414901203F4CA0477B681B68DA687B68E3
S214015F101B689B683D4901203A4CA04700237B62E1
S214015F207B681B689B680933BB6015E07C6A631C51
S214015F307B62BB680822B9180A221800344B9847BE
S214015F400300DAB20C23FB181A55BB681B782C2BFE
S214015F500AD1BB680133BB607B6A132B05DCBB68C7
S214015F601B78002BE2D100E0C0462A4B1900012025
S214015F70244B984700233B620DE00C23FA183B6A3A
S214015F80D3181B781A00244B190001201D4B984783
S214015F903B6A01333B623B6A132BEEDD0C23FB1895
S214015FA018001E4B98470300012B1ED11C4B1900ED
S214015FB00120144B984718E01A4B19000120114B89
S214015FC098477B685B685A687B685B689B680E4984
S214015FD001200C4CA0477B681B68DA687B681B684D
S214015FE09B680A490120074CA047C046BD460BB036
S214015FF090BDC046174303008C610300DD460300D5
S2140160009861030051D7010068610300B461030081
S21401601089480300BC610300D0610300B13D010063
S214016020D4610300F061030090B583B000AF7860DF
S214016030094B19000120094B98477B685B685A6831
S2140160407B685B689B6806490120044CA047C046F4
S214016050BD4603B090BDC0462062030051D7010083
S2140160606861030090B583B000AF78601D4B1900DE
S21401607001201D4B98477B681B68DA687B681B68A4
S2140160809B681A490120184CA0477B681B689868D2
S2140160907B681B68DA68164B1900164B9847031E77
S2140160A008D100211520144B984700211520124BCA
S2140160B0984713E07B681B6898687B681B68DA68FA
S2140160C00E4B19000B4B9847031E07D101211520D3
S2140160D0094B984701211520074B9847C046BD46F6
S2140160E003B090BD5862030051D7010068610300F8
S2140160F078620300DD460300355201007C6203002E
S21401610090B58BB006AFF860B9607A60BB68012BBA
S2140161103BD0052B64D0002B00D067E07B681B6862
S214016120002B25DB334B19000120334B98473349AD
S214016130334AF8680023059300230493002303934E
S21401614000230293002301932D4B00930B000121A2
S2140161502C4CA047031E05D02B4B19000120264BC3
S214016160984743E0294B19000120234B98473DE00F
S214016170274A284B190001201F4B9847244AFB68E1
S21401618011001800244B984730E07B681B78002BE1
S2140161901DD1224B2249F8680222224CA047224BED
S2140161A02249F86802221F4CA047214B2149F86872
S2140161B002221C4CA047204B2049F8680222194CA9
S2140161C0A0471F4B190001200B4B98470EE07B6838
S2140161D01B781A001B4B19000120074B984705E056
S2140161E0194B19000120044B9847C046C046BD46CE
S2140161F005B090BDAC62030051D70100C862030030
S214016200D862030021F10200E46203000C6303007C
S214016210E45B030028630300D9F00200C15E0100BD
S21401622060630300C1F20200CD5D010088620300D5
S2140162302960010074630300656001008863030040
S21401624094630300A8630300DC63030080B588B091
S21401625000AF3B1D18001F4B98473B1D1E4A9A6016
S2140162603B1D80229200DA603B1D1C4A1A613B1DD1
S214016270802292005A613B1D194A1A803B1D194A19
S2140162809A803A1D184B11001800184B98470300C6
S214016290FB61FB69002B06DAFA69154B1900012030
S2140162A0144B9847FEE7144A0F4B11001800134B86
S2140162B098470300FB61FB69002B06DAFA69104B6D
S2140162C0190001200B4B9847FEE7C046BD4608B0B3
S2140162D080BDC04619F002004C0700204C09002082
S2140162E05B070000701700001407002069EF02002A
S2140162F0F063030051D701000161010059F002006B
S2140163002464030080B584B000AF3B1D18000B4B1E
S21401631098473B1D37221A603B1D00225A603B1DE1
S21401632001221A723B1D0222DA723B1D1900072058
S214016330034B9847C046BD4604B080BD516102007C
S2140163408561020080B500AF064B002207211800C8
S214016350054B984700210720044B9847C046BD4689
S21401636080BDC04671630100515D0200B55D02004B
S214016370B0B500AF0C4B1B685A1C0B4B1A600A4B8E
S2140163801B68282B02D9084B01221A60064B1B6892
S214016390064A07483F21074CA047074B01221A70BF
S2140163A0C046BD46B0BDC046A800002058640300E4
S2140163B068000020714503004C0B002080B500AF3B
S2140163C0154A164B11001800154B9847031E08D0A6
S2140163D0144B19000120144B984702E00020134B80
S2140163E098470E4B34229B5C002BF7D1104B9847F5
S2140163F0104B01221A70104A104B11001800104B56
S2140164009847104B9847104B9847104B03221A7029
S214016410C046BD4680BDC046E45B030014070020AD
S2140164200DF20200F05F030051D70100411802008F
S214016430FD4D0200B40400202D5A0100F959010057
S214016440454E0200AD4D0200215601008904002090
S21401645090B585B000AF09E000202A4B98472A4B3B
S21401646018002A4B98470520294B98471020294B9E
S214016470984703001A0001235340DBB2002B09D0D2
S2140164802020244B984703001A0001235340DBB217
S214016490002BE1D1204B9847FA239B0018001C4B98
S2140164A098471E4B00221A703B001D4A13CA13C39D
S2140164B03B0030221A700F23FC183900194B0A22B0
S2140164C01800194B9847030023700F23FB181B78FD
S2140164D0002B08D00F23FB181A78144B1900002044
S2140164E0134B984703E0134B1800134B98470D4B7B
S2140164F01800124B9847124B00221A70C046BD4630
S21401650005B090BD41180200B4460020351F0300B7
S21401651011BA0100F9520100FD4D0200B404002039
S21401652090640300E8060020FDD102006C640300BD
S21401653051D701007C64030065D60100FDDB020033
S2140165408904002080B500AF184B9847184B984730
S214016550184A194B11001800184B9847184B9847C2
S214016560184B34229B5C01225340DBB2002B0CD02B
S214016570154A144B11001800144B9847031E04D0FB
S214016580134B19000120134B98470E4B34229B5C8A
S214016590002B04D0104B190001200E4B98470F4BCF
S2140165A001221A70C046BD4680BDC046FD4D0200A0
S2140165B04D620100A95D0100755D0100454E0200B6
S2140165C0AD4D020014070020E45B0300D9F0020081
S2140165D0F05F030051D701009C640300890400208A
S2140165E080B500AF00200E4B98470E4B18000E4B9F
S2140165F098470E4B98470E4B98470E4B98470E4BB5
S21401660098470E4B98470E4B34229B5C002B04D0C8
S2140166100B4B642118000B4B9847C046BD4680BD06
S21401662041180200B4460020351F030075680100BA
S21401663049660100D5660100496701000568010049
S2140166401407002009F3020090B585B002AF184B7D
S2140166501B68390000221800164B98470300012BCF
S21401666021D13B0000229B5E1C003B0002229B5E68
S21401667019003B0004229B5E0F4A104801930091CB
S21401668023003F210E4CA0470C4B18000D4B98479A
S21401669004000A4A0C490D48002301930123009384
S2140166A023000B4CA047C046BD4603B090BDC04674
S2140166B09404002065A80100B864030028000020A7
S2140166C071450300CF4603007463030014070020DE
S2140166D055F2020090B585B002AF124B1B68B91D8A
S2140166E000221800104B98470300012B15D1BB1D43
S2140166F01B880E4A0E483F210E4CA0470C4B180033
S2140167000D4B984704000A4A0C490D480023019393
S2140167100123009323000B4CA047C046BD4603B09F
S21401672090BDC046A804002065A80100DC640300F3
S2140167302800002071450300CF460300E0640300F3
S2140167401407002055F2020090B587B002AF3A68F0
S2140167501F4B2049101C9847031C1A1C1E4B101C6B
S21401676098470300FB60FA681C4B642110009847A9
S2140167700300BB60BB68642252425A43FB68D318CD
S2140167807B60174B1B68390000221800154B984791
S2140167900300012B17D1B968134A14487B6800938C
S2140167A00B003F21124CA047104B1800114B984785
S2140167B004000E4A10491148002301930123009357
S2140167C023000F4CA047C046BD4605B090BDC0464D
S2140167D0852503000000C842C5270300592303008E
S2140167E0AC04002065A80100FC640300280000201A
S2140167F071450300CF46030004650300140700201B
S21401680055F2020090B585B002AF114B1B68391DD9
S214016810002218000F4B98470300012B14D17B6808
S2140168200D4A0E483F210E4CA0470C4B18000D4B4D
S21401683098470400094A0C490C4800230193012398
S214016840009323000A4CA047C046BD4603B090BD46
S214016850B004002065A80100DC64030028000020C5
S21401686071450300CF46030024650300140700208A
S21401687055F2020090B58BB002AF394B1B68082267
S214016880B91800221800374B98470300012B63D133
S214016890354B364A03CA03C312881A800023FB61AC
S2140168A02DE00823FA18FB69D3181B78FF2B2AD092
S2140168B00823FA18FB69D3181B782D4A38000321E0
S2140168C02C4CA0473A00284B110018002A4B984739
S2140168D0FB6901330822BA18D35CFF2B0CD0FB6985
S2140168E00133132B08DC3B002C221A803A001E4B86
S2140168F011001800204B9847FB690133FB61FB69C7
S214016900132BCEDD00E0C046174B18001B4B9847F3
S21401691003001A00144BD218194B10001900032358
S2140169201A00184B9847104B19000120164B984730
S214016930164B19000120144B98470B4B18000F4BB0
S21401694098470400084A124912480023019301237C
S21401695000932300104CA047C046BD4609B090BD29
S2140169609004002065A80100280000208C61030027
S214016970DC6403007145030055460300CF4603005F
S21401698040650300E142030051D70100446503005E
S214016990486503001407002055F2020090B58DB03B
S2140169A002AF786064209E4B98479E4B9847002222
S2140169B0042105209C4B984702009C4B1A6000223C
S2140169C006210520984B98470200994B1A60002231
S2140169D014210220944B98470200964B1A6000221D
S2140169E002210520904B98470200934B1A60002223
S2140169F0022105208C4B98470200904B1A6000221A
S214016A0002210520884B984702008D4B1A60002210
S214016A1002210520844B984702008A4B1A60002207
S214016A2002210520804B98470200874B1A600022FE
S214016A30042105207C4B98470200844B1A600022F3
S214016A4004210520784B98470200814B1A60774B4A
S214016A501B68002B23D0764B1B68002B1FD0754B71
S214016A601B68002B1BD0744B1B68002B17D0764B72
S214016A701B68002B13D0754B1B68002B0FD0744B73
S214016A801B68002B0BD06D4B1B68002B07D06C4B83
S214016A901B68002B03D06B4B1B68002B03D16D4B7F
S214016AA018006D4B98476D4B18006B4B98476C4B15
S214016AB098476C4B98476C4B98476C4B98476C4B78
S214016AC098476C4B98470C23FB1818220021180096
S214016AD0694B9847694B98470C23FB18684A1A601C
S214016AE02723FC180C23FB181800664B9847030055
S214016AF023702723FB181B785BB2002B09D02723B2
S214016B00FB1800229A56604B190001205F4B9847EC
S214016B10FEE75F4A5F4B190001205C4B98475E4BCE
S214016B2098475E4A5E4B110018005E4B98475E4AD6
S214016B305748FF230093130002220B215B4CA0470A
S214016B4006E000205A4B98475A4B18005A4B984774
S214016B5002205A4B984703001A0001235340DBB228
S214016B60002BEED1FA239B0018002D4B9847544B6F
S214016B7001221A70524B1B785BB2012B0BD002DC40
S214016B80002B05D010E0022B08D0032B09D00BE018
S214016B904C4B98470CE04C4B984709E04B4B9847B9
S214016BA006E04B4B984703E0454B00221A70C0465F
S214016BB00B23FB1800221A701C4B1B680B22B918FA
S214016BC000221800434B98470300012B05D10B23E5
S214016BD0FB181B785AB23A4B1A703F4B1B78DBB244
S214016BE0002B17D03D4B18003D4B984704003B4AFD
S214016BF03C493D48002301930123009323003B4C6D
S214016C00A047364A3A4B19000120204B9847324B91
S214016C1000221A70374B98476420014B9847A9E722
S214016C2011BA010089520100059D01008C04002063
S214016C309404002090040020980400209C04002066
S214016C40A0040020A4040020A8040020AC04002016
S214016C50B00400205C65030065D60100846503006E
S214016C60C55C0100015D01004D620100E15B0100B0
S214016C7005630100456301001743030075FB01002E
S214016C808D5A01004D160200A065030051D7010080
S214016C90BC5F0300CC650300AD4D0200A95D010099
S214016CA0755D0100454E0200B05F03005D180200ED
S214016CB041180200B4460020351F0300F9520100B6
S214016CC08904002045650100E1650100BD630100FE
S214016CD05164010065A801004C0B002068000020EB
S214016CE0CF460300F06503001407002055F20200AA
S214016CF00C6603002548010090B583B000AF020082
S214016D00FB1D1A70FB1D1B78032B06D8054B186854
S214016D10F91D00230A22044CA047C046BD4603B015
S214016D2090BDC0468C040020AD9F010090B585B093
S214016D3000AF7860064B1868796800230A22054C74
S214016D40A0470300FB60FB681800BD4605B090BD78
S214016D509C040020AD9F010090B585B000AF78601F
S214016D60064B1868796800230A22054CA0470300E1
S214016D70FB60FB681800BD4605B090BDA804002066
S214016D80AD9F010090B585B000AF7860064B1868DE
S214016D90796800230A22054CA0470300FB60FB68C4
S214016DA01800BD4605B090BDAC040020AD9F0100A3
S214016DB090B585B000AF7860064B186879680023F7
S214016DC00A22054CA0470300FB60FB681800BD467D
S214016DD005B090BDB0040020AD9F010080B582B023
S214016DE000AF78607B6800221A70C046BD4602B0CC
S214016DF080BD000080B582B000AF02003960FB1D87
S214016E001A70FB1D1B78012B0AD0022B0FD0002B0A
S214016E1014D10E4B0D4A91693A680A439A610FE004
S214016E200A4B0A4AD1693A680A43DA6108E0074B15
S214016E30064A116A3A680A431A6201E0172300E01B
S214016E4000231800BD4602B080BDC04600040040C5
S214016E5080B582B000AF78607B6880221A707B684C
S214016E6000225A707B6801229A707B680022DA70D1
S214016E70C046BD4602B080BD80B500AF054B9B78CD
S214016E80DBB21A00022313405A1E9341DBB21800EC
S214016E90BD4680BD0020004180B500AF024B98473B
S214016EA0C046BD4680BDC046A55A020080B500AFAB
S214016EB0024B9847C046BD4680BDC046F95A0200FF
S214016EC080B582B000AF0200FB1D1A70074AFB1D99
S214016ED01B7819001F230B40012199400B00190054
S214016EE08023D150C046BD4602B080BD00E100E01F
S214016EF080B584B000AF78607B681B68FB60FB6878
S214016F00DB69072213405A1E9341DBB21800BD46C7
S214016F1004B080BD80B582B000AF7860C0467B68A3
S214016F201800044B9847031EF9D1C046BD4602B06F
S214016F3080BDC046F16E010080B584B000AF7860B8
S214016F407B681B68FB607B681B6818000D4B9847C5
S214016F50030018000C4B98477B6818000B4B9847AA
S214016F60FB6883221A75FB6883221A76FB681B6806
S214016F70022293431A00FB681A60C046BD4604B05D
S214016F8080BDC046796F0200C16E0100156F010019
S214016F90F0B597B000AF786139610023FB63002339
S214016FA03B650023FB643B2310229446BC446344A8
S214016FB000221A707B691B68BB637B691B687B6355
S214016FC023231022BA18D4187B6B1800C04B98479D
S214016FD0030023700C2310229446BC44634418001B
S214016FE0BC4B98473B69DB697B643B691B6A3B6426
S214016FF07B6C002B06D17B6B00211800B64B9847A3
S21401700003007B647B6CDAB20C2310218C46BC44F3
S21401701063441A700C2310229446BC446344022233
S2140170205A707B6C1B0CDBB20C2210218C46BC44C4
S214017030624411001800A94B98473B6C002B06D1FF
S2140170407B6B01211800A44B984703003B643B6C03
S214017050DAB20C2310218C46BC4463441A700C230C
S21401706010229446BC44634402225A703B6C1B0CAB
S214017070DBB20C2210218C46BC446244110018007D
S214017080964B98473B699A8A7B69DA803B69DA8A2C
S2140170907B691A813B691B7E002B03D1904B984775
S2140170A0031E02D080237B6501E000237B653B69DC
S2140170B01B69002B04D03B691B697A6D13437B6502
S2140170C03B699B687A6D13437B653B6924229B5C15
S2140170D0002B04D07B6D8022D20513437B653B6970
S2140170E09B6A002B04D03B699B6A7A6D13437B65D0
S2140170F03B692C229B5C002B05D13B699A68802357
S2140171009B049A4204D17B6D8022120513437B6552
S2140171103B692D229B5C002B04D07B6D80221204E0
S21401712013437B653B692E229B5C002B04D07B6D51
S2140171308022D20313437B65BB6B1A687B6D1A43AF
S214017140BB6B1A60BB6B802252005A60232310224D
S2140171509446BC4463441B781433DBB21800614B7D
S21401716098470300FB623B691B68FA22920053436F
S214017170BB623B695B68FA22920053437B623B69C0
S2140171801B8E3B62584BF86A984705000E00564B1B
S214017190B86A9847B860F960534BF86A9847534CF9
S2140171A0534A544BA04703000C003B607C604E4B97
S2140171B0386A984702000B004C4C38687968A0473B
S2140171C003000C00180021004B4C00224B4BA0473B
S2140171D003000C001A002300444CB868F968A04765
S2140171E003000C001A002300454C28003100A0477C
S2140171F003000C001D002600BB6A5A003A4B100023
S214017200984702000B003C4C28003100A0470300C1
S2140172100C00180021003A4C00223A4BA04703000C
S2140172200C001D002600BB6A5A002F4B1000984721
S21401723002000B00344C28003100A04703000C006C
S21401724019002200314B0800110098470300FB6328
S2140172503B699A6880239B049A426AD1224BF86A5A
S2140172609847254C02000B00A04703000C001D00A8
S21401727026001D4B786A98471C4C0022244BA047D9
S21401728003000C001A0023001F4C28003100A04701
S21401729003000C0018002100194C0022194BA047CE
S2140172A003000C0019002200184B08001100984733
S2140172B00300FB64FB6C002B2ED0164B796AF86A30
S2140172C0984703009A1EFB6CD31A3B6531E0C04613
S2140172D0A96E0200516E0100ED6C0200999A02003F
S2140172E0796E01005D980200A54003008D3403000D
S2140172F095D626E80B2E113E0528030000002440F3
S2140173008D3903000000F03F252E0300B93F03002E
S21401731000000840452203007B6A5A00FB6AD31826
S2140173205A1E7B6A59001D4B100098470300013B0B
S2140173303B65FB6BFF2B08DCFB6B002B05DB3B6D1A
S214017340FF2B02DC3B6D002B06DA3B231022944612
S214017350BC44634440221A703B2310229446BC442A
S21401736063441B78402B0ED0FB6BFF221A403B6D0B
S2140173701B041900FF231B040B401343FA6C12066F
S2140173801A43BB6BDA603B2310229446BC44634429
S2140173901B781800BD4617B0F0BDC0464522030055
S2140173A090B58BB000AFF860B9607A60FB68BA68D8
S2140173B01A60FB681B687B62FB681B6818003B4B06
S2140173C0984703003B623B6A0233FB613B6A143316
S2140173D0BB610122FB699A40130019000220344B5D
S2140173E098471423FB181800324B98477B681A7B82
S2140173F01423FB181A70BB69DBB21422BA181100E9
S21401740018002D4B9847BB69DBB218002B4B9847E9
S2140174107B681B7B00211800294B98477B6A1B68F9
S2140174200222134001D01C233BE07B6A1B68012229
S214017430134001D0052334E0FB681B681722BC18F3
S21401744018001A4B9847030023701E4A1723FB188F
S2140174501B78110018001C4B98471723FB181A7845
S2140174601A4B9200F968D150FB6800221A76FB6825
S21401747000225A76FB6800225A83FB6800229A8310
S214017480FB68252200219954FB6800221A627B6A58
S21401749014221A607A68FB68110018000C4B984792
S2140174A003001800BD460BB090BDC046A96E020091
S2140174B0F56D0100DD6D0100399702007D97020030
S2140174C0616C0200153401000D6F02000C5A002099
S2140174D0916F010080B584B000AF78607B681B684F
S2140174E0FB607B6818000F4B98477B6818000E4BB3
S2140174F098470E4B98477B681B6818000C4B9847BB
S214017500030018000B4B98470B4B98477B681800F5
S214017510044B9847FB6801221A60C046BD4604B07A
S21401752080BDC046156F0100396F0100996E0100DC
S214017530796F0200B5980200AD6E010080B584B087
S21401754000AF78607B681B68FB60FB681B7EDBB264
S2140175501A00022313400BD0FB6802221A76FB683E
S2140175605B8B9BB21A000223134011D0412310E01B
S214017570FB685B8B9BB21A000423134008D0FB68A0
S2140175805B68C02292021A43FB685A60182300E027
S21401759000231800BD4604B080BD80B584B000AF9E
S2140175A078607B681B68BB600E23FB1800221A807C
S2140175B00FE00E23FB180E22BA18128801321A8029
S2140175C07B681B890E22BA1812889A4201D31223AD
S2140175D00EE0BB681B7EDBB21A000123134006D106
S2140175E0BB681B7EDBB21A0002231340E1D00023E6
S2140175F01800BD4604B080BD90B585B000AF786078
S2140176000A00FB1C1A707B681B68FB60FB685B68E2
S2140176108022D2021A43FB685A60FB1C1A78FB6868
S2140176205A620B23FC187B681800074B9847030027
S2140176302370FB6801221A760B23FB181B781800AF
S214017640BD4605B090BDC0469B75010080B500AF34
S2140176500020024B9847C046BD4680BD8976010092
S21401766080B500AF0120024B9847C046BD4680BD9D
S2140176708976010080B500AF0220024B9847C046CC
S214017680BD4680BD8976010080B584B000AF02009A
S214017690FB1D1A70FB1D1A78284B9200D358FB600D
S2140176A0FB681B689B7BDBB2FA68127E1340DAB27A
S2140176B0FB68597E0B23FB180A401A700B23FB1834
S2140176C01B780122134008D0FB689B68FA681000FB
S2140176D09847FB681B6801229A730B23FB181B78DB
S2140176E00222134008D0FB68DB68FA68100098474E
S2140176F0FB681B6802229A730B23FB181B78102267
S214017700134008D0FB681B69FA6810009847FB68AD
S2140177101B6810229A730B23FB181B782022134038
S21401772008D0FB685B69FA6810009847FB681B681D
S21401773020229A73C046BD4604B080BDF44700209F
S21401774080B584B000AF78600023FB607B68002BB7
S21401775001D172B6FEE70820114B98470300BB60C3
S214017760BB68002B01D172B6FEE7BB68002B12D0B6
S2140177700C4B9847BB687A681A60BB6800225A604F
S214017780094B1B68BA685A60074BBA681A60074B00
S21401779098470123FB60FB681800BD4604B080BD16
S2140177A0519B0100199A0100F80000203D9A010042
S2140177B080B588B000AFF860B9607A600123FB61DC
S2140177C03D4B1B68002B44D13B4B3C4A1A603AE0C8
S2140177D0394B1B681B681B68BB61BB691800384BBB
S2140177E0984703007B61FA687B69D3181B78202BC6
S2140177F005D0FA687B69D3181B78002B1ED17A69ED
S214017800B969FB6818002F4B9847031E16D12A4BFF
S2140178101B681B681B7B5BB2002B19DBFB6818001F
S214017820294B984703001A00234B1B681B681B7BD8
S2140178305BB29A420CD00023FB6109E01E4B1B6829
S2140178405A681D4B1A601C4B1B68002BC0D100E008
S214017850C046194B1B68002B0CD0FB69002B09D1C5
S2140178607A681A49BB681800194B9847124B0022D0
S2140178701A601CE0104B1B68002B10D00E4B1B68C7
S2140178801B689B68FA687968B86898470300FB61CB
S214017890FB69002B0BD1084B00221A6007E07A68BF
S2140178A00C49BB6818000A4B98470023FB61FB692B
S2140178B01800BD4608B080BD500B0020F000002027
S2140178C0CF460300DD4603003979010068660300F0
